:100000007017002011040000000000000000000034
:1000100000000000000000000000000000000000E0
:1000200000000000000000000000000000000000D0
:1000300000000000000000000000000000000000C0
:1000400000000000000000000000000000000000B0
:10040000FFFFFFFFFFFFFFFFFFFFFFFFFEFFFFFFFD
:100410000D48002101600D480D490E4A002A05D003
:100420000D4BC45CCC5401339342FADB0B480C49AE
:100430000C4A002A05D0084B074CC45004339342A1
:10044000FBDB00F071F8FEE700810440400500008E
:1004500030F8FF1F040000000000000034F8FF1F08
:1004600038F8FF1F0400000080B584B000AF104BC7
:10047000FB60FB681A6880231B0113405A1E9341DE
:10048000DBB2BB60BB68002B0AD1FB681B687B60DA
:100490007B688022120113437B60FB687A681A60D4
:1004A000FB68044A1A60C046BD4604B080BDC04621
:1004B00038800440823F000080B582B000AF0A4B14
:1004C0007B607B681B683B6000233B6000233B60D4
:1004D0003B688022520013433B607B683A681A6095
:1004E000C046BD4602B080BD14B0044080B582B0A5
:1004F00000AF0B4B7B600B4B3B607B681B68202283
:100500001A437B681A603B681B6820221A403B68CC
:100510001A603B6820221A60C046BD4602B080BD0A
:1005200094F00F4080F00F4080B500AFFFF79CFFC4
:0C053000FFF7C2FFFFF7DAFFFEE7C0464E
:04053C000B000000B0
:0405400005000000B2
:00000001FF
