:10000000FF5F00200900000080B586B000AF154BEF
:100010007B61154B3B61154BBB60154BFB60154B72
:100020007B6009E07B691A683B691A603B690433AD
:100030003B617B6904337B613A69BB689A42F1D1C9
:1000400005E0FB6800221A60FB680433FB60FA6875
:100050007B689A42F5D100F02FF8C046BD4606B045
:1000600080BDC046E400000000E0FF1F04E0FF1F69
:1000700004E0FF1F08E0FF1F80B582B000AF054B12
:100080007B6020233B607B683A681A60C046BD46AF
:1000900002B080BD84F00F4080B582B000AF054B48
:1000A0007B6020233B607B683A681A60C046BD468F
:1000B00002B080BD80F00F4080B500AF0B22064B30
:1000C0001B68D218054B1A60FFF7E6FFFFF7D4FF55
:1000D000C046BD4680BDC04600E0FF1F04E0FF1FD4
:0400E0000B00000011
:0400E4000500000013
:00000001FF
